{
  "_format": "hh-sol-artifact-1",
  "contractName": "CreatorsTokenSale",
  "sourceName": "contracts/CreatorsToken/CreatorsTokenSales.sol",
  "abi": [
    {
      "inputs": [],
      "stateMutability": "nonpayable",
      "type": "constructor"
    },
    {
      "anonymous": false,
      "inputs": [
        {
          "indexed": true,
          "internalType": "address",
          "name": "creatorsAddress",
          "type": "address"
        },
        {
          "indexed": true,
          "internalType": "uint256",
          "name": "buyAmount",
          "type": "uint256"
        }
      ],
      "name": "BuyCreatorsTokensEvent",
      "type": "event"
    },
    {
      "anonymous": false,
      "inputs": [
        {
          "indexed": true,
          "internalType": "address",
          "name": "creatorsAddress",
          "type": "address"
        },
        {
          "indexed": true,
          "internalType": "address",
          "name": "creatorsTokenAddress",
          "type": "address"
        },
        {
          "indexed": true,
          "internalType": "uint256",
          "name": "pricePerToken",
          "type": "uint256"
        }
      ],
      "name": "CreateSaleEvent",
      "type": "event"
    },
    {
      "anonymous": false,
      "inputs": [
        {
          "indexed": true,
          "internalType": "address",
          "name": "token",
          "type": "address"
        },
        {
          "indexed": true,
          "internalType": "address",
          "name": "creator",
          "type": "address"
        },
        {
          "indexed": true,
          "internalType": "address",
          "name": "exchange",
          "type": "address"
        }
      ],
      "name": "NewExchange",
      "type": "event"
    },
    {
      "anonymous": false,
      "inputs": [
        {
          "indexed": true,
          "internalType": "address",
          "name": "creatorsAddress",
          "type": "address"
        }
      ],
      "name": "StartSaleEvent",
      "type": "event"
    },
    {
      "anonymous": false,
      "inputs": [
        {
          "indexed": true,
          "internalType": "address",
          "name": "creatorsAddress",
          "type": "address"
        }
      ],
      "name": "StopSaleEvent",
      "type": "event"
    },
    {
      "inputs": [
        {
          "internalType": "address",
          "name": "_tokenAddress",
          "type": "address"
        },
        {
          "internalType": "address",
          "name": "_creatorsAddress",
          "type": "address"
        }
      ],
      "name": "CreateExchange",
      "outputs": [],
      "stateMutability": "nonpayable",
      "type": "function"
    },
    {
      "inputs": [
        {
          "internalType": "address",
          "name": "_creatorsAddress",
          "type": "address"
        },
        {
          "internalType": "address",
          "name": "_creatorsTokenAddress",
          "type": "address"
        },
        {
          "internalType": "address payable",
          "name": "_exchangeAddress",
          "type": "address"
        },
        {
          "internalType": "uint256",
          "name": "_pricePerToken",
          "type": "uint256"
        },
        {
          "internalType": "uint256",
          "name": "_percentageForCreators",
          "type": "uint256"
        },
        {
          "internalType": "uint256",
          "name": "_percentageForLiquidity",
          "type": "uint256"
        },
        {
          "internalType": "uint256",
          "name": "_percentageOfCommitedFunds",
          "type": "uint256"
        },
        {
          "internalType": "uint256",
          "name": "_intervalLength",
          "type": "uint256"
        },
        {
          "internalType": "uint256",
          "name": "_intervalTotalLength",
          "type": "uint256"
        },
        {
          "internalType": "uint256",
          "name": "_amountMinted",
          "type": "uint256"
        }
      ],
      "name": "CreateSale",
      "outputs": [],
      "stateMutability": "nonpayable",
      "type": "function"
    }
  ],
  "bytecode": "0x608060405234801561001057600080fd5b5033600260006101000a81548173ffffffffffffffffffffffffffffffffffffffff021916908373ffffffffffffffffffffffffffffffffffffffff16021790555061251f806100616000396000f3fe60806040523480156200001157600080fd5b50600436106200003a5760003560e01c80637db3dc38146200003f578063ff563b8d146200005f575b600080fd5b6200005d600480360381019062000057919062000b66565b6200007f565b005b6200007d600480360381019062000077919062000c5c565b62000321565b005b600260009054906101000a900473ffffffffffffffffffffffffffffffffffffffff1673ffffffffffffffffffffffffffffffffffffffff163373ffffffffffffffffffffffffffffffffffffffff161462000112576040517f08c379a0000000000000000000000000000000000000000000000000000000008152600401620001099062000d2a565b60405180910390fd5b600073ffffffffffffffffffffffffffffffffffffffff166000808c73ffffffffffffffffffffffffffffffffffffffff1673ffffffffffffffffffffffffffffffffffffffff16815260200190815260200160002060000160009054906101000a900473ffffffffffffffffffffffffffffffffffffffff1673ffffffffffffffffffffffffffffffffffffffff1614620001e5576040517f08c379a0000000000000000000000000000000000000000000000000000000008152600401620001dc9062000dc2565b60405180910390fd5b60648511156200022c576040517f08c379a0000000000000000000000000000000000000000000000000000000008152600401620002239062000e5a565b60405180910390fd5b606486111562000273576040517f08c379a00000000000000000000000000000000000000000000000000000000081526004016200026a9062000ef2565b60405180910390fd5b6000899050620002888b8b8b8b8a8762000454565b620002988b8b8a88888862000634565b60008688620002a8919062000f43565b6064620002b6919062000f7e565b9050888b73ffffffffffffffffffffffffffffffffffffffff168d73ffffffffffffffffffffffffffffffffffffffff167f05bcc1e93fb12765206ea44a0f278b2065f79a421ac3fdb1ba7326907056009960405160405180910390a4505050505050505050505050565b60008282604051620003339062000a6e565b6200034092919062000fca565b604051809103906000f0801580156200035d573d6000803e3d6000fd5b50905080600160003373ffffffffffffffffffffffffffffffffffffffff1673ffffffffffffffffffffffffffffffffffffffff16815260200190815260200160002060006101000a81548173ffffffffffffffffffffffffffffffffffffffff021916908373ffffffffffffffffffffffffffffffffffffffff1602179055508073ffffffffffffffffffffffffffffffffffffffff168273ffffffffffffffffffffffffffffffffffffffff168473ffffffffffffffffffffffffffffffffffffffff167fbb9bfa29c909a1a1e2945e3732bf977977cbefb227287fa8c86a49598a916ba560405160405180910390a4505050565b6000859050856000808973ffffffffffffffffffffffffffffffffffffffff1673ffffffffffffffffffffffffffffffffffffffff16815260200190815260200160002060000160006101000a81548173ffffffffffffffffffffffffffffffffffffffff021916908373ffffffffffffffffffffffffffffffffffffffff160217905550846000808973ffffffffffffffffffffffffffffffffffffffff1673ffffffffffffffffffffffffffffffffffffffff16815260200190815260200160002060010160006101000a81548173ffffffffffffffffffffffffffffffffffffffff021916908373ffffffffffffffffffffffffffffffffffffffff160217905550836000808973ffffffffffffffffffffffffffffffffffffffff1673ffffffffffffffffffffffffffffffffffffffff16815260200190815260200160002060020181905550816000808973ffffffffffffffffffffffffffffffffffffffff1673ffffffffffffffffffffffffffffffffffffffff16815260200190815260200160002060030181905550826000808973ffffffffffffffffffffffffffffffffffffffff1673ffffffffffffffffffffffffffffffffffffffff1681526020019081526020016000206004018190555050505050505050565b600085905060008460646200064a919062000f7e565b905060006064876200065d919062000ff7565b9050612710818362000670919062000ff7565b6200067c919062001071565b6000808b73ffffffffffffffffffffffffffffffffffffffff1673ffffffffffffffffffffffffffffffffffffffff16815260200190815260200160002060080181905550816000808b73ffffffffffffffffffffffffffffffffffffffff1673ffffffffffffffffffffffffffffffffffffffff16815260200190815260200160002060080181905550836000808b73ffffffffffffffffffffffffffffffffffffffff1673ffffffffffffffffffffffffffffffffffffffff1681526020019081526020016000206008015462000756919062001071565b6000808b73ffffffffffffffffffffffffffffffffffffffff1673ffffffffffffffffffffffffffffffffffffffff168152602001908152602001600020600901819055506000808a73ffffffffffffffffffffffffffffffffffffffff1673ffffffffffffffffffffffffffffffffffffffff168152602001908152602001600020600901546000808b73ffffffffffffffffffffffffffffffffffffffff1673ffffffffffffffffffffffffffffffffffffffff168152602001908152602001600020600a0181905550846000808b73ffffffffffffffffffffffffffffffffffffffff1673ffffffffffffffffffffffffffffffffffffffff168152602001908152602001600020600b0181905550836000808b73ffffffffffffffffffffffffffffffffffffffff1673ffffffffffffffffffffffffffffffffffffffff168152602001908152602001600020600c0181905550426000808b73ffffffffffffffffffffffffffffffffffffffff1673ffffffffffffffffffffffffffffffffffffffff168152602001908152602001600020600d01819055506000808a73ffffffffffffffffffffffffffffffffffffffff1673ffffffffffffffffffffffffffffffffffffffff168152602001908152602001600020600d01546000808b73ffffffffffffffffffffffffffffffffffffffff1673ffffffffffffffffffffffffffffffffffffffff168152602001908152602001600020600e01819055506000808a73ffffffffffffffffffffffffffffffffffffffff1673ffffffffffffffffffffffffffffffffffffffff168152602001908152602001600020600d01548486620009cb919062000ff7565b620009d7919062000f43565b6000808b73ffffffffffffffffffffffffffffffffffffffff1673ffffffffffffffffffffffffffffffffffffffff168152602001908152602001600020600f018190555060008060008b73ffffffffffffffffffffffffffffffffffffffff1673ffffffffffffffffffffffffffffffffffffffff16815260200190815260200160002060100181905550505050505050505050565b61144080620010aa83390190565b600080fd5b600073ffffffffffffffffffffffffffffffffffffffff82169050919050565b600062000aae8262000a81565b9050919050565b62000ac08162000aa1565b811462000acc57600080fd5b50565b60008135905062000ae08162000ab5565b92915050565b600062000af38262000a81565b9050919050565b62000b058162000ae6565b811462000b1157600080fd5b50565b60008135905062000b258162000afa565b92915050565b6000819050919050565b62000b408162000b2b565b811462000b4c57600080fd5b50565b60008135905062000b608162000b35565b92915050565b6000806000806000806000806000806101408b8d03121562000b8d5762000b8c62000a7c565b5b600062000b9d8d828e0162000acf565b9a5050602062000bb08d828e0162000acf565b995050604062000bc38d828e0162000b14565b985050606062000bd68d828e0162000b4f565b975050608062000be98d828e0162000b4f565b96505060a062000bfc8d828e0162000b4f565b95505060c062000c0f8d828e0162000b4f565b94505060e062000c228d828e0162000b4f565b93505061010062000c368d828e0162000b4f565b92505061012062000c4a8d828e0162000b4f565b9150509295989b9194979a5092959850565b6000806040838503121562000c765762000c7562000a7c565b5b600062000c868582860162000acf565b925050602062000c998582860162000acf565b9150509250929050565b600082825260208201905092915050565b7f4f6e6c7920636f6e7472616374206465706c6f7965722063616e2063616c6c2060008201527f746869732066756e6374696f6e00000000000000000000000000000000000000602082015250565b600062000d12602d8362000ca3565b915062000d1f8262000cb4565b604082019050919050565b6000602082019050818103600083015262000d458162000d03565b9050919050565b7f63726561746f727320746f6b656e2073616c6520697320616c7265616479206360008201527f7265617465640000000000000000000000000000000000000000000000000000602082015250565b600062000daa60268362000ca3565b915062000db78262000d4c565b604082019050919050565b6000602082019050818103600083015262000ddd8162000d9b565b9050919050565b7f50657263656e7461676520666f72206c69717569646974792063616e6e6f742060008201527f626520686967686572207468616e203130300000000000000000000000000000602082015250565b600062000e4260328362000ca3565b915062000e4f8262000de4565b604082019050919050565b6000602082019050818103600083015262000e758162000e33565b9050919050565b7f50657263656e7461676520666f722063726561746f72732063616e6e6f74206260008201527f6520686967686572207468616e20313030000000000000000000000000000000602082015250565b600062000eda60318362000ca3565b915062000ee78262000e7c565b604082019050919050565b6000602082019050818103600083015262000f0d8162000ecb565b9050919050565b7f4e487b7100000000000000000000000000000000000000000000000000000000600052601160045260246000fd5b600062000f508262000b2b565b915062000f5d8362000b2b565b925082820190508082111562000f785762000f7762000f14565b5b92915050565b600062000f8b8262000b2b565b915062000f988362000b2b565b925082820390508181111562000fb35762000fb262000f14565b5b92915050565b62000fc48162000aa1565b82525050565b600060408201905062000fe1600083018562000fb9565b62000ff0602083018462000fb9565b9392505050565b6000620010048262000b2b565b9150620010118362000b2b565b9250828202620010218162000b2b565b915082820484148315176200103b576200103a62000f14565b5b5092915050565b7f4e487b7100000000000000000000000000000000000000000000000000000000600052601260045260246000fd5b60006200107e8262000b2b565b91506200108b8362000b2b565b9250826200109e576200109d62001042565b5b82820490509291505056fe60806040523480156200001157600080fd5b506040516200144038038062001440833981810160405281019062000037919062000172565b816000806101000a81548173ffffffffffffffffffffffffffffffffffffffff021916908373ffffffffffffffffffffffffffffffffffffffff16021790555081600b60006101000a81548173ffffffffffffffffffffffffffffffffffffffff021916908373ffffffffffffffffffffffffffffffffffffffff16021790555080600160006101000a81548173ffffffffffffffffffffffffffffffffffffffff021916908373ffffffffffffffffffffffffffffffffffffffff160217905550426006819055505050620001b9565b600080fd5b600073ffffffffffffffffffffffffffffffffffffffff82169050919050565b60006200013a826200010d565b9050919050565b6200014c816200012d565b81146200015857600080fd5b50565b6000815190506200016c8162000141565b92915050565b600080604083850312156200018c576200018b62000108565b5b60006200019c858286016200015b565b9250506020620001af858286016200015b565b9150509250929050565b61127780620001c96000396000f3fe60806040526004361061008a5760003560e01c806355818dc61161005957806355818dc61461015b5780637bc1c2a6146101775780637ddced5a146101b457806382b2e257146101dd578063fc732d4f14610208576100a9565b80630930df6a146100ae578063441a39f3146100eb578063487537641461011657806351c6590a1461013f576100a9565b366100a95734600260008282546100a19190610d28565b925050819055005b600080fd5b3480156100ba57600080fd5b506100d560048036038101906100d09190610deb565b610226565b6040516100e29190610eaa565b60405180910390f35b3480156100f757600080fd5b506101006102ca565b60405161010d9190610ed4565b60405180910390f35b34801561012257600080fd5b5061013d60048036038101906101389190610eef565b6102d4565b005b61015960048036038101906101549190610eef565b610576565b005b61017560048036038101906101709190610f1c565b610657565b005b34801561018357600080fd5b5061019e60048036038101906101999190610eef565b61095d565b6040516101ab9190610ed4565b60405180910390f35b3480156101c057600080fd5b506101db60048036038101906101d69190610f1c565b610a1a565b005b3480156101e957600080fd5b506101f2610c47565b6040516101ff9190610ed4565b60405180910390f35b610210610c51565b60405161021d9190610ed4565b60405180910390f35b61022e610cc5565b600960008473ffffffffffffffffffffffffffffffffffffffff1673ffffffffffffffffffffffffffffffffffffffff16815260200190815260200160002060008381526020019081526020016000206040518060800160405290816000820160009054906101000a900460ff161515151581526020016001820154815260200160028201548152602001600382015481525050905092915050565b6000600254905090565b42600960003373ffffffffffffffffffffffffffffffffffffffff1673ffffffffffffffffffffffffffffffffffffffff168152602001908152602001600020600083815260200190815260200160002060030154111561036a576040517f08c379a000000000000000000000000000000000000000000000000000000000815260040161036190610fdf565b60405180910390fd5b6000600960003373ffffffffffffffffffffffffffffffffffffffff1673ffffffffffffffffffffffffffffffffffffffff16815260200190815260200160002060008381526020019081526020016000206040518060800160405290816000820160009054906101000a900460ff16151515158152602001600182015481526020016002820154815260200160038201548152505090508060200151600560008282546104189190610fff565b925050819055508060400151600460008282546104359190610fff565b925050819055508060200151600360008282546104529190610d28565b9250508190555080604001516002600082825461046f9190610d28565b925050819055508060200151600760003373ffffffffffffffffffffffffffffffffffffffff1673ffffffffffffffffffffffffffffffffffffffff168152602001908152602001600020819055508060400151600860003373ffffffffffffffffffffffffffffffffffffffff1673ffffffffffffffffffffffffffffffffffffffff168152602001908152602001600020819055506000600960003373ffffffffffffffffffffffffffffffffffffffff1673ffffffffffffffffffffffffffffffffffffffff168152602001908152602001600020600084815260200190815260200160002060000160006101000a81548160ff0219169083151502179055505050565b34600260008282546105889190610d28565b9250508190555080600360008282546105a19190610d28565b9250508190555080600760003373ffffffffffffffffffffffffffffffffffffffff1673ffffffffffffffffffffffffffffffffffffffff16815260200190815260200160002060008282546105f79190610d28565b9250508190555034600860003373ffffffffffffffffffffffffffffffffffffffff1673ffffffffffffffffffffffffffffffffffffffff168152602001908152602001600020600082825461064d9190610d28565b9250508190555050565b34600460008282546106699190610d28565b9250508190555081600560008282546106829190610d28565b925050819055506001600960003373ffffffffffffffffffffffffffffffffffffffff1673ffffffffffffffffffffffffffffffffffffffff1681526020019081526020016000206000600a60003373ffffffffffffffffffffffffffffffffffffffff1673ffffffffffffffffffffffffffffffffffffffff16815260200190815260200160002054815260200190815260200160002060000160006101000a81548160ff02191690831515021790555081600960003373ffffffffffffffffffffffffffffffffffffffff1673ffffffffffffffffffffffffffffffffffffffff1681526020019081526020016000206000600a60003373ffffffffffffffffffffffffffffffffffffffff1673ffffffffffffffffffffffffffffffffffffffff1681526020019081526020016000205481526020019081526020016000206001018190555081600960003373ffffffffffffffffffffffffffffffffffffffff1673ffffffffffffffffffffffffffffffffffffffff1681526020019081526020016000206000600a60003373ffffffffffffffffffffffffffffffffffffffff1673ffffffffffffffffffffffffffffffffffffffff16815260200190815260200160002054815260200190815260200160002060020181905550804261086e9190610d28565b600960003373ffffffffffffffffffffffffffffffffffffffff1673ffffffffffffffffffffffffffffffffffffffff1681526020019081526020016000206000600a60003373ffffffffffffffffffffffffffffffffffffffff1673ffffffffffffffffffffffffffffffffffffffff16815260200190815260200160002054815260200190815260200160002060030181905550600a60003373ffffffffffffffffffffffffffffffffffffffff1673ffffffffffffffffffffffffffffffffffffffff168152602001908152602001600020600081548092919061095490611033565b91905055505050565b600080600354600254610970919061107b565b905082600360008282546109849190610d28565b9250508190555060006003548261099b91906110ec565b90506000816002546109ad9190610fff565b905080600260008282546109c19190610fff565b925050819055503373ffffffffffffffffffffffffffffffffffffffff166108fc829081150290604051600060405180830381858888f19350505050158015610a0e573d6000803e3d6000fd5b50809350505050919050565b81600760003373ffffffffffffffffffffffffffffffffffffffff1673ffffffffffffffffffffffffffffffffffffffff168152602001908152602001600020541115610a9c576040517f08c379a0000000000000000000000000000000000000000000000000000000008152600401610a939061118f565b60405180910390fd5b80600860003373ffffffffffffffffffffffffffffffffffffffff1673ffffffffffffffffffffffffffffffffffffffff168152602001908152602001600020541115610b1e576040517f08c379a0000000000000000000000000000000000000000000000000000000008152600401610b1590611221565b60405180910390fd5b8160036000828254610b309190610fff565b925050819055508060026000828254610b499190610fff565b9250508190555081600760003373ffffffffffffffffffffffffffffffffffffffff1673ffffffffffffffffffffffffffffffffffffffff1681526020019081526020016000206000828254610b9f9190610fff565b9250508190555080600860003373ffffffffffffffffffffffffffffffffffffffff1673ffffffffffffffffffffffffffffffffffffffff1681526020019081526020016000206000828254610bf59190610fff565b925050819055503373ffffffffffffffffffffffffffffffffffffffff166108fc829081150290604051600060405180830381858888f19350505050158015610c42573d6000803e3d6000fd5b505050565b6000600354905090565b600080600354600254610c64919061107b565b90503460026000828254610c789190610d28565b92505081905550600060025482610c8f91906110ec565b9050600081600354610ca19190610fff565b90508060036000828254610cb59190610fff565b9250508190555080935050505090565b60405180608001604052806000151581526020016000815260200160008152602001600081525090565b6000819050919050565b7f4e487b7100000000000000000000000000000000000000000000000000000000600052601160045260246000fd5b6000610d3382610cef565b9150610d3e83610cef565b9250828201905080821115610d5657610d55610cf9565b5b92915050565b600080fd5b600073ffffffffffffffffffffffffffffffffffffffff82169050919050565b6000610d8c82610d61565b9050919050565b610d9c81610d81565b8114610da757600080fd5b50565b600081359050610db981610d93565b92915050565b610dc881610cef565b8114610dd357600080fd5b50565b600081359050610de581610dbf565b92915050565b60008060408385031215610e0257610e01610d5c565b5b6000610e1085828601610daa565b9250506020610e2185828601610dd6565b9150509250929050565b60008115159050919050565b610e4081610e2b565b82525050565b610e4f81610cef565b82525050565b608082016000820151610e6b6000850182610e37565b506020820151610e7e6020850182610e46565b506040820151610e916040850182610e46565b506060820151610ea46060850182610e46565b50505050565b6000608082019050610ebf6000830184610e55565b92915050565b610ece81610cef565b82525050565b6000602082019050610ee96000830184610ec5565b92915050565b600060208284031215610f0557610f04610d5c565b5b6000610f1384828501610dd6565b91505092915050565b60008060408385031215610f3357610f32610d5c565b5b6000610f4185828601610dd6565b9250506020610f5285828601610dd6565b9150509250929050565b600082825260208201905092915050565b7f6c6971756964697479206c6f636b206475726174696f6e20686173206e6f742060008201527f7061737365642079657400000000000000000000000000000000000000000000602082015250565b6000610fc9602a83610f5c565b9150610fd482610f6d565b604082019050919050565b60006020820190508181036000830152610ff881610fbc565b9050919050565b600061100a82610cef565b915061101583610cef565b925082820390508181111561102d5761102c610cf9565b5b92915050565b600061103e82610cef565b91507fffffffffffffffffffffffffffffffffffffffffffffffffffffffffffffffff82036110705761106f610cf9565b5b600182019050919050565b600061108682610cef565b915061109183610cef565b925082820261109f81610cef565b915082820484148315176110b6576110b5610cf9565b5b5092915050565b7f4e487b7100000000000000000000000000000000000000000000000000000000600052601260045260246000fd5b60006110f782610cef565b915061110283610cef565b925082611112576111116110bd565b5b828204905092915050565b7f6164647265737320646f6573206e6f74206861766520656e6f7567682063726560008201527f61746f727320746f6b656e73206465706f736974656400000000000000000000602082015250565b6000611179603683610f5c565b91506111848261111d565b604082019050919050565b600060208201905081810360008301526111a88161116c565b9050919050565b7f6164647265737320646f6573206e6f74206861766520656e6f756768206e617460008201527f69766520746f6b656e73206465706f7369746564000000000000000000000000602082015250565b600061120b603483610f5c565b9150611216826111af565b604082019050919050565b6000602082019050818103600083015261123a816111fe565b905091905056fea264697066735822122033da43e18545fc49ac6a8d56fae9f563c9d14683bc0baaa2adcf52ac2683f61b64736f6c63430008140033a264697066735822122045d765c2c7a7d71a3cc8e246eaf73f310d626f6ca5c6203ffb2bd495d9d59c4564736f6c63430008140033",
  "linkReferences": {},
  "deployedLinkReferences": {}
}