{
  "_format": "hh-sol-artifact-1",
  "contractName": "Factory",
  "sourceName": "contracts/CreatorsToken/CreatorsFactory.sol",
  "abi": [
    {
      "anonymous": false,
      "inputs": [
        {
          "indexed": false,
          "internalType": "address",
          "name": "tokenAddress",
          "type": "address"
        }
      ],
      "name": "TokenDeployed",
      "type": "event"
    },
    {
      "inputs": [
        {
          "internalType": "string",
          "name": "_name",
          "type": "string"
        },
        {
          "internalType": "string",
          "name": "_symbol",
          "type": "string"
        },
        {
          "internalType": "string",
          "name": "_initialTokenURI",
          "type": "string"
        },
        {
          "internalType": "uint256",
          "name": "_totalSupply",
          "type": "uint256"
        }
      ],
      "name": "deployToken",
      "outputs": [
        {
          "internalType": "address",
          "name": "",
          "type": "address"
        }
      ],
      "stateMutability": "nonpayable",
      "type": "function"
    },
    {
      "inputs": [],
      "name": "tokenCount",
      "outputs": [
        {
          "internalType": "uint256",
          "name": "",
          "type": "uint256"
        }
      ],
      "stateMutability": "view",
      "type": "function"
    },
    {
      "inputs": [
        {
          "internalType": "uint256",
          "name": "",
          "type": "uint256"
        }
      ],
      "name": "tokens",
      "outputs": [
        {
          "internalType": "address",
          "name": "",
          "type": "address"
        }
      ],
      "stateMutability": "view",
      "type": "function"
    }
  ],
  "bytecode": "0x608060405234801561001057600080fd5b50613e94806100206000396000f3fe60806040523480156200001157600080fd5b5060043610620000465760003560e01c80634f64b2be146200004b5780639f181b5e1462000081578063a1c9973a14620000a3575b600080fd5b62000069600480360381019062000063919062000284565b620000d9565b604051620000789190620002fb565b60405180910390f35b6200008b62000119565b6040516200009a919062000329565b60405180910390f35b620000c16004803603810190620000bb9190620003b4565b6200011f565b604051620000d09190620002fb565b60405180910390f35b60008181548110620000ea57600080fd5b906000526020600020016000915054906101000a900473ffffffffffffffffffffffffffffffffffffffff1681565b60015481565b6000808888888888888833604051620001389062000231565b6200014b989796959493929190620004f5565b604051809103906000f08015801562000168573d6000803e3d6000fd5b5090506000819080600181540180825580915050600190039060005260206000200160009091909190916101000a81548173ffffffffffffffffffffffffffffffffffffffff021916908373ffffffffffffffffffffffffffffffffffffffff1602179055506001806000828254620001e291906200059c565b925050819055507f91d24864a084ab70b268a1f865e757ca12006cf298d763b6be697302ef86498c816040516200021a9190620002fb565b60405180910390a180915050979650505050505050565b61388780620005d883390190565b600080fd5b600080fd5b6000819050919050565b6200025e8162000249565b81146200026a57600080fd5b50565b6000813590506200027e8162000253565b92915050565b6000602082840312156200029d576200029c6200023f565b5b6000620002ad848285016200026d565b91505092915050565b600073ffffffffffffffffffffffffffffffffffffffff82169050919050565b6000620002e382620002b6565b9050919050565b620002f581620002d6565b82525050565b6000602082019050620003126000830184620002ea565b92915050565b620003238162000249565b82525050565b600060208201905062000340600083018462000318565b92915050565b600080fd5b600080fd5b600080fd5b60008083601f8401126200036e576200036d62000346565b5b8235905067ffffffffffffffff8111156200038e576200038d6200034b565b5b602083019150836001820283011115620003ad57620003ac62000350565b5b9250929050565b60008060008060008060006080888a031215620003d657620003d56200023f565b5b600088013567ffffffffffffffff811115620003f757620003f662000244565b5b620004058a828b0162000355565b9750975050602088013567ffffffffffffffff8111156200042b576200042a62000244565b5b620004398a828b0162000355565b9550955050604088013567ffffffffffffffff8111156200045f576200045e62000244565b5b6200046d8a828b0162000355565b93509350506060620004828a828b016200026d565b91505092959891949750929550565b600082825260208201905092915050565b82818337600083830152505050565b6000601f19601f8301169050919050565b6000620004d0838562000491565b9350620004df838584620004a2565b620004ea83620004b1565b840190509392505050565b600060a082019050818103600083015262000512818a8c620004c2565b905081810360208301526200052981888a620004c2565b9050818103604083015262000540818688620004c2565b905062000551606083018562000318565b620005606080830184620002ea565b9998505050505050505050565b7f4e487b7100000000000000000000000000000000000000000000000000000000600052601160045260246000fd5b6000620005a98262000249565b9150620005b68362000249565b9250828201905080821115620005d157620005d06200056d565b5b9291505056fe60806040523480156200001157600080fd5b506040516200388738038062003887833981810160405281019062000037919062000ce7565b80858581600090816200004b91906200100d565b5080600190816200005d91906200100d565b505050600073ffffffffffffffffffffffffffffffffffffffff168173ffffffffffffffffffffffffffffffffffffffff1603620000d55760006040517f1e4fbdf7000000000000000000000000000000000000000000000000000000008152600401620000cc919062001105565b60405180910390fd5b620000e6816200012e60201b60201c565b50620000f98183620001f460201b60201c565b6200012360086000815480929190620001129062001151565b9190505584620002fb60201b60201c565b5050505050620011f9565b6000600760009054906101000a900473ffffffffffffffffffffffffffffffffffffffff16905081600760006101000a81548173ffffffffffffffffffffffffffffffffffffffff021916908373ffffffffffffffffffffffffffffffffffffffff1602179055508173ffffffffffffffffffffffffffffffffffffffff168173ffffffffffffffffffffffffffffffffffffffff167f8be0079c531659141344cd1fd0a4f28419497f9722a3daafe3b4186f6b6457e060405160405180910390a35050565b600073ffffffffffffffffffffffffffffffffffffffff168273ffffffffffffffffffffffffffffffffffffffff1603620002695760006040517f64a0ae9200000000000000000000000000000000000000000000000000000000815260040162000260919062001105565b60405180910390fd5b60006200027f838360006200035b60201b60201c565b9050600073ffffffffffffffffffffffffffffffffffffffff168173ffffffffffffffffffffffffffffffffffffffff1614620002f65760006040517f73c6ac6e000000000000000000000000000000000000000000000000000000008152600401620002ed919062001105565b60405180910390fd5b505050565b806006600084815260200190815260200160002090816200031d91906200100d565b507ff8e1a15aba9398e019f0b49df1a4fde98ee17ae345cb5f6b5e2c27f5033e8ce7826040516200034f9190620011af565b60405180910390a15050565b6000806200036f846200059060201b60201c565b9050600073ffffffffffffffffffffffffffffffffffffffff168373ffffffffffffffffffffffffffffffffffffffff1614620003ba57620003b9818486620005cd60201b60201c565b5b600073ffffffffffffffffffffffffffffffffffffffff168173ffffffffffffffffffffffffffffffffffffffff16146200045457620004056000856000806200069f60201b60201c565b6001600360008373ffffffffffffffffffffffffffffffffffffffff1673ffffffffffffffffffffffffffffffffffffffff168152602001908152602001600020600082825403925050819055505b600073ffffffffffffffffffffffffffffffffffffffff168573ffffffffffffffffffffffffffffffffffffffff1614620004d8576001600360008773ffffffffffffffffffffffffffffffffffffffff1673ffffffffffffffffffffffffffffffffffffffff168152602001908152602001600020600082825401925050819055505b846002600086815260200190815260200160002060006101000a81548173ffffffffffffffffffffffffffffffffffffffff021916908373ffffffffffffffffffffffffffffffffffffffff160217905550838573ffffffffffffffffffffffffffffffffffffffff168273ffffffffffffffffffffffffffffffffffffffff167fddf252ad1be2c89b69c2b068fc378daa952ba7f163c4a11628f55a4df523b3ef60405160405180910390a4809150509392505050565b60006002600083815260200190815260200160002060009054906101000a900473ffffffffffffffffffffffffffffffffffffffff169050919050565b620005e08383836200087c60201b60201c565b6200069a57600073ffffffffffffffffffffffffffffffffffffffff168373ffffffffffffffffffffffffffffffffffffffff16036200065957806040517f7e273289000000000000000000000000000000000000000000000000000000008152600401620006509190620011af565b60405180910390fd5b81816040517f177e802f00000000000000000000000000000000000000000000000000000000815260040162000691929190620011cc565b60405180910390fd5b505050565b8080620006d95750600073ffffffffffffffffffffffffffffffffffffffff168273ffffffffffffffffffffffffffffffffffffffff1614155b1562000824576000620006f2846200095060201b60201c565b9050600073ffffffffffffffffffffffffffffffffffffffff168373ffffffffffffffffffffffffffffffffffffffff16141580156200075e57508273ffffffffffffffffffffffffffffffffffffffff168173ffffffffffffffffffffffffffffffffffffffff1614155b80156200077a5750620007788184620009e360201b60201c565b155b15620007bf57826040517fa9fbf51f000000000000000000000000000000000000000000000000000000008152600401620007b6919062001105565b60405180910390fd5b81156200082257838573ffffffffffffffffffffffffffffffffffffffff168273ffffffffffffffffffffffffffffffffffffffff167f8c5be1e5ebec7d5bd14f71427d1e84f3dd0314c0f7b2291e5b200ac8c7c3b92560405160405180910390a45b505b836004600085815260200190815260200160002060006101000a81548173ffffffffffffffffffffffffffffffffffffffff021916908373ffffffffffffffffffffffffffffffffffffffff16021790555050505050565b60008073ffffffffffffffffffffffffffffffffffffffff168373ffffffffffffffffffffffffffffffffffffffff16141580156200094757508273ffffffffffffffffffffffffffffffffffffffff168473ffffffffffffffffffffffffffffffffffffffff161480620008ff5750620008fe8484620009e360201b60201c565b5b806200094657508273ffffffffffffffffffffffffffffffffffffffff166200092e8362000a7760201b60201c565b73ffffffffffffffffffffffffffffffffffffffff16145b5b90509392505050565b60008062000964836200059060201b60201c565b9050600073ffffffffffffffffffffffffffffffffffffffff168173ffffffffffffffffffffffffffffffffffffffff1603620009da57826040517f7e273289000000000000000000000000000000000000000000000000000000008152600401620009d19190620011af565b60405180910390fd5b80915050919050565b6000600560008473ffffffffffffffffffffffffffffffffffffffff1673ffffffffffffffffffffffffffffffffffffffff16815260200190815260200160002060008373ffffffffffffffffffffffffffffffffffffffff1673ffffffffffffffffffffffffffffffffffffffff16815260200190815260200160002060009054906101000a900460ff16905092915050565b60006004600083815260200190815260200160002060009054906101000a900473ffffffffffffffffffffffffffffffffffffffff169050919050565b6000604051905090565b600080fd5b600080fd5b600080fd5b600080fd5b6000601f19601f8301169050919050565b7f4e487b7100000000000000000000000000000000000000000000000000000000600052604160045260246000fd5b62000b1d8262000ad2565b810181811067ffffffffffffffff8211171562000b3f5762000b3e62000ae3565b5b80604052505050565b600062000b5462000ab4565b905062000b62828262000b12565b919050565b600067ffffffffffffffff82111562000b855762000b8462000ae3565b5b62000b908262000ad2565b9050602081019050919050565b60005b8381101562000bbd57808201518184015260208101905062000ba0565b60008484015250505050565b600062000be062000bda8462000b67565b62000b48565b90508281526020810184848401111562000bff5762000bfe62000acd565b5b62000c0c84828562000b9d565b509392505050565b600082601f83011262000c2c5762000c2b62000ac8565b5b815162000c3e84826020860162000bc9565b91505092915050565b6000819050919050565b62000c5c8162000c47565b811462000c6857600080fd5b50565b60008151905062000c7c8162000c51565b92915050565b600073ffffffffffffffffffffffffffffffffffffffff82169050919050565b600062000caf8262000c82565b9050919050565b62000cc18162000ca2565b811462000ccd57600080fd5b50565b60008151905062000ce18162000cb6565b92915050565b600080600080600060a0868803121562000d065762000d0562000abe565b5b600086015167ffffffffffffffff81111562000d275762000d2662000ac3565b5b62000d358882890162000c14565b955050602086015167ffffffffffffffff81111562000d595762000d5862000ac3565b5b62000d678882890162000c14565b945050604086015167ffffffffffffffff81111562000d8b5762000d8a62000ac3565b5b62000d998882890162000c14565b935050606062000dac8882890162000c6b565b925050608062000dbf8882890162000cd0565b9150509295509295909350565b600081519050919050565b7f4e487b7100000000000000000000000000000000000000000000000000000000600052602260045260246000fd5b6000600282049050600182168062000e1f57607f821691505b60208210810362000e355762000e3462000dd7565b5b50919050565b60008190508160005260206000209050919050565b60006020601f8301049050919050565b600082821b905092915050565b60006008830262000e9f7fffffffffffffffffffffffffffffffffffffffffffffffffffffffffffffffff8262000e60565b62000eab868362000e60565b95508019841693508086168417925050509392505050565b6000819050919050565b600062000eee62000ee862000ee28462000c47565b62000ec3565b62000c47565b9050919050565b6000819050919050565b62000f0a8362000ecd565b62000f2262000f198262000ef5565b84845462000e6d565b825550505050565b600090565b62000f3962000f2a565b62000f4681848462000eff565b505050565b5b8181101562000f6e5762000f6260008262000f2f565b60018101905062000f4c565b5050565b601f82111562000fbd5762000f878162000e3b565b62000f928462000e50565b8101602085101562000fa2578190505b62000fba62000fb18562000e50565b83018262000f4b565b50505b505050565b600082821c905092915050565b600062000fe26000198460080262000fc2565b1980831691505092915050565b600062000ffd838362000fcf565b9150826002028217905092915050565b620010188262000dcc565b67ffffffffffffffff81111562001034576200103362000ae3565b5b62001040825462000e06565b6200104d82828562000f72565b600060209050601f83116001811462001085576000841562001070578287015190505b6200107c858262000fef565b865550620010ec565b601f198416620010958662000e3b565b60005b82811015620010bf5784890151825560018201915060208501945060208101905062001098565b86831015620010df5784890151620010db601f89168262000fcf565b8355505b6001600288020188555050505b505050505050565b620010ff8162000ca2565b82525050565b60006020820190506200111c6000830184620010f4565b92915050565b7f4e487b7100000000000000000000000000000000000000000000000000000000600052601160045260246000fd5b60006200115e8262000c47565b91507fffffffffffffffffffffffffffffffffffffffffffffffffffffffffffffffff820362001193576200119262001122565b5b600182019050919050565b620011a98162000c47565b82525050565b6000602082019050620011c660008301846200119e565b92915050565b6000604082019050620011e36000830185620010f4565b620011f260208301846200119e565b9392505050565b61267e80620012096000396000f3fe608060405234801561001057600080fd5b506004361061010b5760003560e01c8063715018a6116100a2578063b88d4fde11610071578063b88d4fde146102a4578063c87b56dd146102c0578063d204c45e146102f0578063e985e9c51461030c578063f2fde38b1461033c5761010b565b8063715018a6146102425780638da5cb5b1461024c57806395d89b411461026a578063a22cb465146102885761010b565b806323b872dd116100de57806323b872dd146101aa57806342842e0e146101c65780636352211e146101e257806370a08231146102125761010b565b806301ffc9a71461011057806306fdde0314610140578063081812fc1461015e578063095ea7b31461018e575b600080fd5b61012a60048036038101906101259190611ad6565b610358565b6040516101379190611b1e565b60405180910390f35b61014861036a565b6040516101559190611bc9565b60405180910390f35b61017860048036038101906101739190611c21565b6103fc565b6040516101859190611c8f565b60405180910390f35b6101a860048036038101906101a39190611cd6565b610418565b005b6101c460048036038101906101bf9190611d16565b61042e565b005b6101e060048036038101906101db9190611d16565b610530565b005b6101fc60048036038101906101f79190611c21565b610550565b6040516102099190611c8f565b60405180910390f35b61022c60048036038101906102279190611d69565b610562565b6040516102399190611da5565b60405180910390f35b61024a61061c565b005b610254610630565b6040516102619190611c8f565b60405180910390f35b61027261065a565b60405161027f9190611bc9565b60405180910390f35b6102a2600480360381019061029d9190611dec565b6106ec565b005b6102be60048036038101906102b99190611f61565b610702565b005b6102da60048036038101906102d59190611c21565b61071f565b6040516102e79190611bc9565b60405180910390f35b61030a60048036038101906103059190612085565b610731565b005b610326600480360381019061032191906120e1565b61076d565b6040516103339190611b1e565b60405180910390f35b61035660048036038101906103519190611d69565b610801565b005b600061036382610887565b9050919050565b60606000805461037990612150565b80601f01602080910402602001604051908101604052809291908181526020018280546103a590612150565b80156103f25780601f106103c7576101008083540402835291602001916103f2565b820191906000526020600020905b8154815290600101906020018083116103d557829003601f168201915b5050505050905090565b6000610407826108e8565b5061041182610970565b9050919050565b61042a82826104256109ad565b6109b5565b5050565b600073ffffffffffffffffffffffffffffffffffffffff168273ffffffffffffffffffffffffffffffffffffffff16036104a05760006040517f64a0ae920000000000000000000000000000000000000000000000000000000081526004016104979190611c8f565b60405180910390fd5b60006104b483836104af6109ad565b6109c7565b90508373ffffffffffffffffffffffffffffffffffffffff168173ffffffffffffffffffffffffffffffffffffffff161461052a578382826040517f64283d7b00000000000000000000000000000000000000000000000000000000815260040161052193929190612181565b60405180910390fd5b50505050565b61054b83838360405180602001604052806000815250610702565b505050565b600061055b826108e8565b9050919050565b60008073ffffffffffffffffffffffffffffffffffffffff168273ffffffffffffffffffffffffffffffffffffffff16036105d55760006040517f89c62b640000000000000000000000000000000000000000000000000000000081526004016105cc9190611c8f565b60405180910390fd5b600360008373ffffffffffffffffffffffffffffffffffffffff1673ffffffffffffffffffffffffffffffffffffffff168152602001908152602001600020549050919050565b610624610be1565b61062e6000610c68565b565b6000600760009054906101000a900473ffffffffffffffffffffffffffffffffffffffff16905090565b60606001805461066990612150565b80601f016020809104026020016040519081016040528092919081815260200182805461069590612150565b80156106e25780601f106106b7576101008083540402835291602001916106e2565b820191906000526020600020905b8154815290600101906020018083116106c557829003601f168201915b5050505050905090565b6106fe6106f76109ad565b8383610d2e565b5050565b61070d84848461042e565b61071984848484610e9d565b50505050565b606061072a82611054565b9050919050565b610739610be1565b60006008600081548092919061074e906121e7565b91905055905061075e8382611167565b6107688183611185565b505050565b6000600560008473ffffffffffffffffffffffffffffffffffffffff1673ffffffffffffffffffffffffffffffffffffffff16815260200190815260200160002060008373ffffffffffffffffffffffffffffffffffffffff1673ffffffffffffffffffffffffffffffffffffffff16815260200190815260200160002060009054906101000a900460ff16905092915050565b610809610be1565b600073ffffffffffffffffffffffffffffffffffffffff168173ffffffffffffffffffffffffffffffffffffffff160361087b5760006040517f1e4fbdf70000000000000000000000000000000000000000000000000000000081526004016108729190611c8f565b60405180910390fd5b61088481610c68565b50565b6000634906490660e01b7bffffffffffffffffffffffffffffffffffffffffffffffffffffffff1916827bffffffffffffffffffffffffffffffffffffffffffffffffffffffff191614806108e157506108e0826111e1565b5b9050919050565b6000806108f4836112c3565b9050600073ffffffffffffffffffffffffffffffffffffffff168173ffffffffffffffffffffffffffffffffffffffff160361096757826040517f7e27328900000000000000000000000000000000000000000000000000000000815260040161095e9190611da5565b60405180910390fd5b80915050919050565b60006004600083815260200190815260200160002060009054906101000a900473ffffffffffffffffffffffffffffffffffffffff169050919050565b600033905090565b6109c28383836001611300565b505050565b6000806109d3846112c3565b9050600073ffffffffffffffffffffffffffffffffffffffff168373ffffffffffffffffffffffffffffffffffffffff1614610a1557610a148184866114c5565b5b600073ffffffffffffffffffffffffffffffffffffffff168173ffffffffffffffffffffffffffffffffffffffff1614610aa657610a57600085600080611300565b6001600360008373ffffffffffffffffffffffffffffffffffffffff1673ffffffffffffffffffffffffffffffffffffffff168152602001908152602001600020600082825403925050819055505b600073ffffffffffffffffffffffffffffffffffffffff168573ffffffffffffffffffffffffffffffffffffffff1614610b29576001600360008773ffffffffffffffffffffffffffffffffffffffff1673ffffffffffffffffffffffffffffffffffffffff168152602001908152602001600020600082825401925050819055505b846002600086815260200190815260200160002060006101000a81548173ffffffffffffffffffffffffffffffffffffffff021916908373ffffffffffffffffffffffffffffffffffffffff160217905550838573ffffffffffffffffffffffffffffffffffffffff168273ffffffffffffffffffffffffffffffffffffffff167fddf252ad1be2c89b69c2b068fc378daa952ba7f163c4a11628f55a4df523b3ef60405160405180910390a4809150509392505050565b610be96109ad565b73ffffffffffffffffffffffffffffffffffffffff16610c07610630565b73ffffffffffffffffffffffffffffffffffffffff1614610c6657610c2a6109ad565b6040517f118cdaa7000000000000000000000000000000000000000000000000000000008152600401610c5d9190611c8f565b60405180910390fd5b565b6000600760009054906101000a900473ffffffffffffffffffffffffffffffffffffffff16905081600760006101000a81548173ffffffffffffffffffffffffffffffffffffffff021916908373ffffffffffffffffffffffffffffffffffffffff1602179055508173ffffffffffffffffffffffffffffffffffffffff168173ffffffffffffffffffffffffffffffffffffffff167f8be0079c531659141344cd1fd0a4f28419497f9722a3daafe3b4186f6b6457e060405160405180910390a35050565b600073ffffffffffffffffffffffffffffffffffffffff168273ffffffffffffffffffffffffffffffffffffffff1603610d9f57816040517f5b08ba18000000000000000000000000000000000000000000000000000000008152600401610d969190611c8f565b60405180910390fd5b80600560008573ffffffffffffffffffffffffffffffffffffffff1673ffffffffffffffffffffffffffffffffffffffff16815260200190815260200160002060008473ffffffffffffffffffffffffffffffffffffffff1673ffffffffffffffffffffffffffffffffffffffff16815260200190815260200160002060006101000a81548160ff0219169083151502179055508173ffffffffffffffffffffffffffffffffffffffff168373ffffffffffffffffffffffffffffffffffffffff167f17307eab39ab6107e8899845ad3d59bd9653f200f220920489ca2b5937696c3183604051610e909190611b1e565b60405180910390a3505050565b60008373ffffffffffffffffffffffffffffffffffffffff163b111561104e578273ffffffffffffffffffffffffffffffffffffffff1663150b7a02610ee16109ad565b8685856040518563ffffffff1660e01b8152600401610f039493929190612284565b6020604051808303816000875af1925050508015610f3f57506040513d601f19601f82011682018060405250810190610f3c91906122e5565b60015b610fc3573d8060008114610f6f576040519150601f19603f3d011682016040523d82523d6000602084013e610f74565b606091505b506000815103610fbb57836040517f64a0ae92000000000000000000000000000000000000000000000000000000008152600401610fb29190611c8f565b60405180910390fd5b805181602001fd5b63150b7a0260e01b7bffffffffffffffffffffffffffffffffffffffffffffffffffffffff1916817bffffffffffffffffffffffffffffffffffffffffffffffffffffffff19161461104c57836040517f64a0ae920000000000000000000000000000000000000000000000000000000081526004016110439190611c8f565b60405180910390fd5b505b50505050565b606061105f826108e8565b50600060066000848152602001908152602001600020805461108090612150565b80601f01602080910402602001604051908101604052809291908181526020018280546110ac90612150565b80156110f95780601f106110ce576101008083540402835291602001916110f9565b820191906000526020600020905b8154815290600101906020018083116110dc57829003601f168201915b50505050509050600061110a611589565b9050600081510361111f578192505050611162565b60008251111561115457808260405160200161113c92919061234e565b60405160208183030381529060405292505050611162565b61115d846115a0565b925050505b919050565b611181828260405180602001604052806000815250611609565b5050565b806006600084815260200190815260200160002090816111a5919061251e565b507ff8e1a15aba9398e019f0b49df1a4fde98ee17ae345cb5f6b5e2c27f5033e8ce7826040516111d59190611da5565b60405180910390a15050565b60007f80ac58cd000000000000000000000000000000000000000000000000000000007bffffffffffffffffffffffffffffffffffffffffffffffffffffffff1916827bffffffffffffffffffffffffffffffffffffffffffffffffffffffff191614806112ac57507f5b5e139f000000000000000000000000000000000000000000000000000000007bffffffffffffffffffffffffffffffffffffffffffffffffffffffff1916827bffffffffffffffffffffffffffffffffffffffffffffffffffffffff1916145b806112bc57506112bb82611625565b5b9050919050565b60006002600083815260200190815260200160002060009054906101000a900473ffffffffffffffffffffffffffffffffffffffff169050919050565b80806113395750600073ffffffffffffffffffffffffffffffffffffffff168273ffffffffffffffffffffffffffffffffffffffff1614155b1561146d576000611349846108e8565b9050600073ffffffffffffffffffffffffffffffffffffffff168373ffffffffffffffffffffffffffffffffffffffff16141580156113b457508273ffffffffffffffffffffffffffffffffffffffff168173ffffffffffffffffffffffffffffffffffffffff1614155b80156113c757506113c5818461076d565b155b1561140957826040517fa9fbf51f0000000000000000000000000000000000000000000000000000000081526004016114009190611c8f565b60405180910390fd5b811561146b57838573ffffffffffffffffffffffffffffffffffffffff168273ffffffffffffffffffffffffffffffffffffffff167f8c5be1e5ebec7d5bd14f71427d1e84f3dd0314c0f7b2291e5b200ac8c7c3b92560405160405180910390a45b505b836004600085815260200190815260200160002060006101000a81548173ffffffffffffffffffffffffffffffffffffffff021916908373ffffffffffffffffffffffffffffffffffffffff16021790555050505050565b6114d083838361168f565b61158457600073ffffffffffffffffffffffffffffffffffffffff168373ffffffffffffffffffffffffffffffffffffffff160361154557806040517f7e27328900000000000000000000000000000000000000000000000000000000815260040161153c9190611da5565b60405180910390fd5b81816040517f177e802f00000000000000000000000000000000000000000000000000000000815260040161157b9291906125f0565b60405180910390fd5b505050565b606060405180602001604052806000815250905090565b60606115ab826108e8565b5060006115b6611589565b905060008151116115d65760405180602001604052806000815250611601565b806115e084611750565b6040516020016115f192919061234e565b6040516020818303038152906040525b915050919050565b611613838361181e565b6116206000848484610e9d565b505050565b60007f01ffc9a7000000000000000000000000000000000000000000000000000000007bffffffffffffffffffffffffffffffffffffffffffffffffffffffff1916827bffffffffffffffffffffffffffffffffffffffffffffffffffffffff1916149050919050565b60008073ffffffffffffffffffffffffffffffffffffffff168373ffffffffffffffffffffffffffffffffffffffff161415801561174757508273ffffffffffffffffffffffffffffffffffffffff168473ffffffffffffffffffffffffffffffffffffffff1614806117085750611707848461076d565b5b8061174657508273ffffffffffffffffffffffffffffffffffffffff1661172e83610970565b73ffffffffffffffffffffffffffffffffffffffff16145b5b90509392505050565b60606000600161175f84611917565b01905060008167ffffffffffffffff81111561177e5761177d611e36565b5b6040519080825280601f01601f1916602001820160405280156117b05781602001600182028036833780820191505090505b509050600082602001820190505b600115611813578080600190039150507f3031323334353637383961626364656600000000000000000000000000000000600a86061a8153600a858161180757611806612619565b5b049450600085036117be575b819350505050919050565b600073ffffffffffffffffffffffffffffffffffffffff168273ffffffffffffffffffffffffffffffffffffffff16036118905760006040517f64a0ae920000000000000000000000000000000000000000000000000000000081526004016118879190611c8f565b60405180910390fd5b600061189e838360006109c7565b9050600073ffffffffffffffffffffffffffffffffffffffff168173ffffffffffffffffffffffffffffffffffffffff16146119125760006040517f73c6ac6e0000000000000000000000000000000000000000000000000000000081526004016119099190611c8f565b60405180910390fd5b505050565b600080600090507a184f03e93ff9f4daa797ed6e38ed64bf6a1f0100000000000000008310611975577a184f03e93ff9f4daa797ed6e38ed64bf6a1f010000000000000000838161196b5761196a612619565b5b0492506040810190505b6d04ee2d6d415b85acef810000000083106119b2576d04ee2d6d415b85acef810000000083816119a8576119a7612619565b5b0492506020810190505b662386f26fc1000083106119e157662386f26fc1000083816119d7576119d6612619565b5b0492506010810190505b6305f5e1008310611a0a576305f5e1008381611a00576119ff612619565b5b0492506008810190505b6127108310611a2f576127108381611a2557611a24612619565b5b0492506004810190505b60648310611a525760648381611a4857611a47612619565b5b0492506002810190505b600a8310611a61576001810190505b80915050919050565b6000604051905090565b600080fd5b600080fd5b60007fffffffff0000000000000000000000000000000000000000000000000000000082169050919050565b611ab381611a7e565b8114611abe57600080fd5b50565b600081359050611ad081611aaa565b92915050565b600060208284031215611aec57611aeb611a74565b5b6000611afa84828501611ac1565b91505092915050565b60008115159050919050565b611b1881611b03565b82525050565b6000602082019050611b336000830184611b0f565b92915050565b600081519050919050565b600082825260208201905092915050565b60005b83811015611b73578082015181840152602081019050611b58565b60008484015250505050565b6000601f19601f8301169050919050565b6000611b9b82611b39565b611ba58185611b44565b9350611bb5818560208601611b55565b611bbe81611b7f565b840191505092915050565b60006020820190508181036000830152611be38184611b90565b905092915050565b6000819050919050565b611bfe81611beb565b8114611c0957600080fd5b50565b600081359050611c1b81611bf5565b92915050565b600060208284031215611c3757611c36611a74565b5b6000611c4584828501611c0c565b91505092915050565b600073ffffffffffffffffffffffffffffffffffffffff82169050919050565b6000611c7982611c4e565b9050919050565b611c8981611c6e565b82525050565b6000602082019050611ca46000830184611c80565b92915050565b611cb381611c6e565b8114611cbe57600080fd5b50565b600081359050611cd081611caa565b92915050565b60008060408385031215611ced57611cec611a74565b5b6000611cfb85828601611cc1565b9250506020611d0c85828601611c0c565b9150509250929050565b600080600060608486031215611d2f57611d2e611a74565b5b6000611d3d86828701611cc1565b9350506020611d4e86828701611cc1565b9250506040611d5f86828701611c0c565b9150509250925092565b600060208284031215611d7f57611d7e611a74565b5b6000611d8d84828501611cc1565b91505092915050565b611d9f81611beb565b82525050565b6000602082019050611dba6000830184611d96565b92915050565b611dc981611b03565b8114611dd457600080fd5b50565b600081359050611de681611dc0565b92915050565b60008060408385031215611e0357611e02611a74565b5b6000611e1185828601611cc1565b9250506020611e2285828601611dd7565b9150509250929050565b600080fd5b600080fd5b7f4e487b7100000000000000000000000000000000000000000000000000000000600052604160045260246000fd5b611e6e82611b7f565b810181811067ffffffffffffffff82111715611e8d57611e8c611e36565b5b80604052505050565b6000611ea0611a6a565b9050611eac8282611e65565b919050565b600067ffffffffffffffff821115611ecc57611ecb611e36565b5b611ed582611b7f565b9050602081019050919050565b82818337600083830152505050565b6000611f04611eff84611eb1565b611e96565b905082815260208101848484011115611f2057611f1f611e31565b5b611f2b848285611ee2565b509392505050565b600082601f830112611f4857611f47611e2c565b5b8135611f58848260208601611ef1565b91505092915050565b60008060008060808587031215611f7b57611f7a611a74565b5b6000611f8987828801611cc1565b9450506020611f9a87828801611cc1565b9350506040611fab87828801611c0c565b925050606085013567ffffffffffffffff811115611fcc57611fcb611a79565b5b611fd887828801611f33565b91505092959194509250565b600067ffffffffffffffff821115611fff57611ffe611e36565b5b61200882611b7f565b9050602081019050919050565b600061202861202384611fe4565b611e96565b90508281526020810184848401111561204457612043611e31565b5b61204f848285611ee2565b509392505050565b600082601f83011261206c5761206b611e2c565b5b813561207c848260208601612015565b91505092915050565b6000806040838503121561209c5761209b611a74565b5b60006120aa85828601611cc1565b925050602083013567ffffffffffffffff8111156120cb576120ca611a79565b5b6120d785828601612057565b9150509250929050565b600080604083850312156120f8576120f7611a74565b5b600061210685828601611cc1565b925050602061211785828601611cc1565b9150509250929050565b7f4e487b7100000000000000000000000000000000000000000000000000000000600052602260045260246000fd5b6000600282049050600182168061216857607f821691505b60208210810361217b5761217a612121565b5b50919050565b60006060820190506121966000830186611c80565b6121a36020830185611d96565b6121b06040830184611c80565b949350505050565b7f4e487b7100000000000000000000000000000000000000000000000000000000600052601160045260246000fd5b60006121f282611beb565b91507fffffffffffffffffffffffffffffffffffffffffffffffffffffffffffffffff8203612224576122236121b8565b5b600182019050919050565b600081519050919050565b600082825260208201905092915050565b60006122568261222f565b612260818561223a565b9350612270818560208601611b55565b61227981611b7f565b840191505092915050565b60006080820190506122996000830187611c80565b6122a66020830186611c80565b6122b36040830185611d96565b81810360608301526122c5818461224b565b905095945050505050565b6000815190506122df81611aaa565b92915050565b6000602082840312156122fb576122fa611a74565b5b6000612309848285016122d0565b91505092915050565b600081905092915050565b600061232882611b39565b6123328185612312565b9350612342818560208601611b55565b80840191505092915050565b600061235a828561231d565b9150612366828461231d565b91508190509392505050565b60008190508160005260206000209050919050565b60006020601f8301049050919050565b600082821b905092915050565b6000600883026123d47fffffffffffffffffffffffffffffffffffffffffffffffffffffffffffffffff82612397565b6123de8683612397565b95508019841693508086168417925050509392505050565b6000819050919050565b600061241b61241661241184611beb565b6123f6565b611beb565b9050919050565b6000819050919050565b61243583612400565b61244961244182612422565b8484546123a4565b825550505050565b600090565b61245e612451565b61246981848461242c565b505050565b5b8181101561248d57612482600082612456565b60018101905061246f565b5050565b601f8211156124d2576124a381612372565b6124ac84612387565b810160208510156124bb578190505b6124cf6124c785612387565b83018261246e565b50505b505050565b600082821c905092915050565b60006124f5600019846008026124d7565b1980831691505092915050565b600061250e83836124e4565b9150826002028217905092915050565b61252782611b39565b67ffffffffffffffff8111156125405761253f611e36565b5b61254a8254612150565b612555828285612491565b600060209050601f8311600181146125885760008415612576578287015190505b6125808582612502565b8655506125e8565b601f19841661259686612372565b60005b828110156125be57848901518255600182019150602085019450602081019050612599565b868310156125db57848901516125d7601f8916826124e4565b8355505b6001600288020188555050505b505050505050565b60006040820190506126056000830185611c80565b6126126020830184611d96565b9392505050565b7f4e487b7100000000000000000000000000000000000000000000000000000000600052601260045260246000fdfea2646970667358221220ec25b24fad81c37b2c68e7f194e3f89e4d48bd13e73d38f7051ec2a81359b1ec64736f6c63430008140033a264697066735822122003568a8155c0950e8f0e97c18eb1c3fd665122c22bd7ec0f9cc3a3b8a0450e7064736f6c63430008140033",
  "linkReferences": {},
  "deployedLinkReferences": {}
}